{
  "_format": "hh-sol-artifact-1",
  "contractName": "AnyFlowFactory",
  "sourceName": "contracts/AnyFlowFactory.sol",
  "abi": [
    {
      "inputs": [],
      "name": "Create2EmptyBytecode",
      "type": "error"
    },
    {
      "inputs": [],
      "name": "Create2FailedDeployment",
      "type": "error"
    },
    {
      "inputs": [
        {
          "internalType": "uint256",
          "name": "balance",
          "type": "uint256"
        },
        {
          "internalType": "uint256",
          "name": "needed",
          "type": "uint256"
        }
      ],
      "name": "Create2InsufficientBalance",
      "type": "error"
    },
    {
      "anonymous": false,
      "inputs": [
        {
          "indexed": true,
          "internalType": "address",
          "name": "deployer",
          "type": "address"
        },
        {
          "indexed": false,
          "internalType": "address",
          "name": "proxy",
          "type": "address"
        },
        {
          "indexed": false,
          "internalType": "bytes32",
          "name": "salt",
          "type": "bytes32"
        }
      ],
      "name": "ContractDeployed",
      "type": "event"
    },
    {
      "inputs": [
        {
          "internalType": "bytes32",
          "name": "salt",
          "type": "bytes32"
        },
        {
          "internalType": "bytes32",
          "name": "bytecodeHash",
          "type": "bytes32"
        }
      ],
      "name": "computeAddress",
      "outputs": [
        {
          "internalType": "address",
          "name": "",
          "type": "address"
        }
      ],
      "stateMutability": "view",
      "type": "function"
    },
    {
      "inputs": [
        {
          "internalType": "bytes32",
          "name": "salt",
          "type": "bytes32"
        },
        {
          "internalType": "bytes32",
          "name": "bytecodeHash",
          "type": "bytes32"
        },
        {
          "internalType": "address",
          "name": "deployer",
          "type": "address"
        }
      ],
      "name": "computeAddress",
      "outputs": [
        {
          "internalType": "address",
          "name": "",
          "type": "address"
        }
      ],
      "stateMutability": "pure",
      "type": "function"
    },
    {
      "inputs": [
        {
          "internalType": "uint256",
          "name": "amount",
          "type": "uint256"
        },
        {
          "internalType": "bytes32",
          "name": "salt",
          "type": "bytes32"
        },
        {
          "internalType": "bytes",
          "name": "bytecode",
          "type": "bytes"
        }
      ],
      "name": "deploy",
      "outputs": [
        {
          "internalType": "address",
          "name": "",
          "type": "address"
        }
      ],
      "stateMutability": "nonpayable",
      "type": "function"
    },
    {
      "inputs": [],
      "name": "version",
      "outputs": [
        {
          "internalType": "string",
          "name": "",
          "type": "string"
        }
      ],
      "stateMutability": "view",
      "type": "function"
    }
  ],
  "bytecode": "0x608060405234801561001057600080fd5b5061078c806100206000396000f3fe608060405234801561001057600080fd5b506004361061004c5760003560e01c8063481286e61461005157806354fd4d501461008157806366cfa0571461009f57806378065306146100cf575b600080fd5b61006b6004803603810190610066919061033f565b6100ff565b60405161007891906103c0565b60405180910390f35b610089610114565b604051610096919061046b565b60405180910390f35b6100b960048036038101906100b491906105f8565b61014d565b6040516100c691906103c0565b60405180910390f35b6100e960048036038101906100e49190610693565b6101b8565b6040516100f691906103c0565b60405180910390f35b600061010c8383336101b8565b905092915050565b6040518060400160405280600681526020017f76302e302e31000000000000000000000000000000000000000000000000000081525081565b60008061015b8585856101ce565b90503373ffffffffffffffffffffffffffffffffffffffff167f41a1a1e5033fb48fa68ae6842ead9050d540ddf76974d1cee54faf540d1f49e682866040516101a59291906106f5565b60405180910390a2809150509392505050565b60006101c58484846102ca565b90509392505050565b6000834710156102175747846040517fe4bbecac00000000000000000000000000000000000000000000000000000000815260040161020e92919061072d565b60405180910390fd5b6000825103610252576040517f4ca249dc00000000000000000000000000000000000000000000000000000000815260040160405180910390fd5b8282516020840186f59050600073ffffffffffffffffffffffffffffffffffffffff168173ffffffffffffffffffffffffffffffffffffffff16036102c3576040517f741752c200000000000000000000000000000000000000000000000000000000815260040160405180910390fd5b9392505050565b6000604051836040820152846020820152828152600b810160ff815360558120925050509392505050565b6000604051905090565b600080fd5b600080fd5b6000819050919050565b61031c81610309565b811461032757600080fd5b50565b60008135905061033981610313565b92915050565b60008060408385031215610356576103556102ff565b5b60006103648582860161032a565b92505060206103758582860161032a565b9150509250929050565b600073ffffffffffffffffffffffffffffffffffffffff82169050919050565b60006103aa8261037f565b9050919050565b6103ba8161039f565b82525050565b60006020820190506103d560008301846103b1565b92915050565b600081519050919050565b600082825260208201905092915050565b60005b838110156104155780820151818401526020810190506103fa565b60008484015250505050565b6000601f19601f8301169050919050565b600061043d826103db565b61044781856103e6565b93506104578185602086016103f7565b61046081610421565b840191505092915050565b600060208201905081810360008301526104858184610432565b905092915050565b6000819050919050565b6104a08161048d565b81146104ab57600080fd5b50565b6000813590506104bd81610497565b92915050565b600080fd5b600080fd5b7f4e487b7100000000000000000000000000000000000000000000000000000000600052604160045260246000fd5b61050582610421565b810181811067ffffffffffffffff82111715610524576105236104cd565b5b80604052505050565b60006105376102f5565b905061054382826104fc565b919050565b600067ffffffffffffffff821115610563576105626104cd565b5b61056c82610421565b9050602081019050919050565b82818337600083830152505050565b600061059b61059684610548565b61052d565b9050828152602081018484840111156105b7576105b66104c8565b5b6105c2848285610579565b509392505050565b600082601f8301126105df576105de6104c3565b5b81356105ef848260208601610588565b91505092915050565b600080600060608486031215610611576106106102ff565b5b600061061f868287016104ae565b93505060206106308682870161032a565b925050604084013567ffffffffffffffff81111561065157610650610304565b5b61065d868287016105ca565b9150509250925092565b6106708161039f565b811461067b57600080fd5b50565b60008135905061068d81610667565b92915050565b6000806000606084860312156106ac576106ab6102ff565b5b60006106ba8682870161032a565b93505060206106cb8682870161032a565b92505060406106dc8682870161067e565b9150509250925092565b6106ef81610309565b82525050565b600060408201905061070a60008301856103b1565b61071760208301846106e6565b9392505050565b6107278161048d565b82525050565b6000604082019050610742600083018561071e565b61074f602083018461071e565b939250505056fea2646970667358221220b08efe801d93fa64a23d54e60a8feebd2a5fcbd4ed288df1fe8b6d4ddb2f7b2c64736f6c63430008180033",
  "linkReferences": {},
  "deployedLinkReferences": {}
}